{
    "contractName": "BABYTOKENDividendTracker",
    "abi": [
        {
            "anonymous": false,
            "inputs": [
                {
                    "indexed": true,
                    "internalType": "address",
                    "name": "owner",
                    "type": "address"
                },
                {
                    "indexed": true,
                    "internalType": "address",
                    "name": "spender",
                    "type": "address"
                },
                {
                    "indexed": false,
                    "internalType": "uint256",
                    "name": "value",
                    "type": "uint256"
                }
            ],
            "name": "Approval",
            "type": "event"
        },
        {
            "anonymous": false,
            "inputs": [
                {
                    "indexed": true,
                    "internalType": "address",
                    "name": "account",
                    "type": "address"
                },
                {
                    "indexed": false,
                    "internalType": "uint256",
                    "name": "amount",
                    "type": "uint256"
                },
                {
                    "indexed": true,
                    "internalType": "bool",
                    "name": "automatic",
                    "type": "bool"
                }
            ],
            "name": "Claim",
            "type": "event"
        },
        {
            "anonymous": false,
            "inputs": [
                {
                    "indexed": true,
                    "internalType": "uint256",
                    "name": "newValue",
                    "type": "uint256"
                },
                {
                    "indexed": true,
                    "internalType": "uint256",
                    "name": "oldValue",
                    "type": "uint256"
                }
            ],
            "name": "ClaimWaitUpdated",
            "type": "event"
        },
        {
            "anonymous": false,
            "inputs": [
                {
                    "indexed": true,
                    "internalType": "address",
                    "name": "to",
                    "type": "address"
                },
                {
                    "indexed": false,
                    "internalType": "uint256",
                    "name": "weiAmount",
                    "type": "uint256"
                }
            ],
            "name": "DividendWithdrawn",
            "type": "event"
        },
        {
            "anonymous": false,
            "inputs": [
                {
                    "indexed": true,
                    "internalType": "address",
                    "name": "from",
                    "type": "address"
                },
                {
                    "indexed": false,
                    "internalType": "uint256",
                    "name": "weiAmount",
                    "type": "uint256"
                }
            ],
            "name": "DividendsDistributed",
            "type": "event"
        },
        {
            "anonymous": false,
            "inputs": [
                {
                    "indexed": true,
                    "internalType": "address",
                    "name": "account",
                    "type": "address"
                }
            ],
            "name": "ExcludeFromDividends",
            "type": "event"
        },
        {
            "anonymous": false,
            "inputs": [
                {
                    "indexed": true,
                    "internalType": "address",
                    "name": "previousOwner",
                    "type": "address"
                },
                {
                    "indexed": true,
                    "internalType": "address",
                    "name": "newOwner",
                    "type": "address"
                }
            ],
            "name": "OwnershipTransferred",
            "type": "event"
        },
        {
            "anonymous": false,
            "inputs": [
                {
                    "indexed": true,
                    "internalType": "address",
                    "name": "from",
                    "type": "address"
                },
                {
                    "indexed": true,
                    "internalType": "address",
                    "name": "to",
                    "type": "address"
                },
                {
                    "indexed": false,
                    "internalType": "uint256",
                    "name": "value",
                    "type": "uint256"
                }
            ],
            "name": "Transfer",
            "type": "event"
        },
        {
            "inputs": [
                {
                    "internalType": "address",
                    "name": "_owner",
                    "type": "address"
                }
            ],
            "name": "accumulativeDividendOf",
            "outputs": [
                {
                    "internalType": "uint256",
                    "name": "",
                    "type": "uint256"
                }
            ],
            "stateMutability": "view",
            "type": "function"
        },
        {
            "inputs": [
                {
                    "internalType": "address",
                    "name": "owner",
                    "type": "address"
                },
                {
                    "internalType": "address",
                    "name": "spender",
                    "type": "address"
                }
            ],
            "name": "allowance",
            "outputs": [
                {
                    "internalType": "uint256",
                    "name": "",
                    "type": "uint256"
                }
            ],
            "stateMutability": "view",
            "type": "function"
        },
        {
            "inputs": [
                {
                    "internalType": "address",
                    "name": "spender",
                    "type": "address"
                },
                {
                    "internalType": "uint256",
                    "name": "amount",
                    "type": "uint256"
                }
            ],
            "name": "approve",
            "outputs": [
                {
                    "internalType": "bool",
                    "name": "",
                    "type": "bool"
                }
            ],
            "stateMutability": "nonpayable",
            "type": "function"
        },
        {
            "inputs": [
                {
                    "internalType": "address",
                    "name": "account",
                    "type": "address"
                }
            ],
            "name": "balanceOf",
            "outputs": [
                {
                    "internalType": "uint256",
                    "name": "",
                    "type": "uint256"
                }
            ],
            "stateMutability": "view",
            "type": "function"
        },
        {
            "inputs": [],
            "name": "claimWait",
            "outputs": [
                {
                    "internalType": "uint256",
                    "name": "",
                    "type": "uint256"
                }
            ],
            "stateMutability": "view",
            "type": "function"
        },
        {
            "inputs": [],
            "name": "decimals",
            "outputs": [
                {
                    "internalType": "uint8",
                    "name": "",
                    "type": "uint8"
                }
            ],
            "stateMutability": "view",
            "type": "function"
        },
        {
            "inputs": [
                {
                    "internalType": "address",
                    "name": "spender",
                    "type": "address"
                },
                {
                    "internalType": "uint256",
                    "name": "subtractedValue",
                    "type": "uint256"
                }
            ],
            "name": "decreaseAllowance",
            "outputs": [
                {
                    "internalType": "bool",
                    "name": "",
                    "type": "bool"
                }
            ],
            "stateMutability": "nonpayable",
            "type": "function"
        },
        {
            "inputs": [
                {
                    "internalType": "uint256",
                    "name": "amount",
                    "type": "uint256"
                }
            ],
            "name": "distributeCAKEDividends",
            "outputs": [],
            "stateMutability": "nonpayable",
            "type": "function"
        },
        {
            "inputs": [
                {
                    "internalType": "address",
                    "name": "_owner",
                    "type": "address"
                }
            ],
            "name": "dividendOf",
            "outputs": [
                {
                    "internalType": "uint256",
                    "name": "",
                    "type": "uint256"
                }
            ],
            "stateMutability": "view",
            "type": "function"
        },
        {
            "inputs": [
                {
                    "internalType": "address",
                    "name": "account",
                    "type": "address"
                }
            ],
            "name": "excludeFromDividends",
            "outputs": [],
            "stateMutability": "nonpayable",
            "type": "function"
        },
        {
            "inputs": [
                {
                    "internalType": "address",
                    "name": "",
                    "type": "address"
                }
            ],
            "name": "excludedFromDividends",
            "outputs": [
                {
                    "internalType": "bool",
                    "name": "",
                    "type": "bool"
                }
            ],
            "stateMutability": "view",
            "type": "function"
        },
        {
            "inputs": [
                {
                    "internalType": "address",
                    "name": "_account",
                    "type": "address"
                }
            ],
            "name": "getAccount",
            "outputs": [
                {
                    "internalType": "address",
                    "name": "account",
                    "type": "address"
                },
                {
                    "internalType": "int256",
                    "name": "index",
                    "type": "int256"
                },
                {
                    "internalType": "int256",
                    "name": "iterationsUntilProcessed",
                    "type": "int256"
                },
                {
                    "internalType": "uint256",
                    "name": "withdrawableDividends",
                    "type": "uint256"
                },
                {
                    "internalType": "uint256",
                    "name": "totalDividends",
                    "type": "uint256"
                },
                {
                    "internalType": "uint256",
                    "name": "lastClaimTime",
                    "type": "uint256"
                },
                {
                    "internalType": "uint256",
                    "name": "nextClaimTime",
                    "type": "uint256"
                },
                {
                    "internalType": "uint256",
                    "name": "secondsUntilAutoClaimAvailable",
                    "type": "uint256"
                }
            ],
            "stateMutability": "view",
            "type": "function"
        },
        {
            "inputs": [
                {
                    "internalType": "uint256",
                    "name": "index",
                    "type": "uint256"
                }
            ],
            "name": "getAccountAtIndex",
            "outputs": [
                {
                    "internalType": "address",
                    "name": "",
                    "type": "address"
                },
                {
                    "internalType": "int256",
                    "name": "",
                    "type": "int256"
                },
                {
                    "internalType": "int256",
                    "name": "",
                    "type": "int256"
                },
                {
                    "internalType": "uint256",
                    "name": "",
                    "type": "uint256"
                },
                {
                    "internalType": "uint256",
                    "name": "",
                    "type": "uint256"
                },
                {
                    "internalType": "uint256",
                    "name": "",
                    "type": "uint256"
                },
                {
                    "internalType": "uint256",
                    "name": "",
                    "type": "uint256"
                },
                {
                    "internalType": "uint256",
                    "name": "",
                    "type": "uint256"
                }
            ],
            "stateMutability": "view",
            "type": "function"
        },
        {
            "inputs": [],
            "name": "getLastProcessedIndex",
            "outputs": [
                {
                    "internalType": "uint256",
                    "name": "",
                    "type": "uint256"
                }
            ],
            "stateMutability": "view",
            "type": "function"
        },
        {
            "inputs": [],
            "name": "getNumberOfTokenHolders",
            "outputs": [
                {
                    "internalType": "uint256",
                    "name": "",
                    "type": "uint256"
                }
            ],
            "stateMutability": "view",
            "type": "function"
        },
        {
            "inputs": [
                {
                    "internalType": "address",
                    "name": "spender",
                    "type": "address"
                },
                {
                    "internalType": "uint256",
                    "name": "addedValue",
                    "type": "uint256"
                }
            ],
            "name": "increaseAllowance",
            "outputs": [
                {
                    "internalType": "bool",
                    "name": "",
                    "type": "bool"
                }
            ],
            "stateMutability": "nonpayable",
            "type": "function"
        },
        {
            "inputs": [
                {
                    "internalType": "address",
                    "name": "rewardToken_",
                    "type": "address"
                },
                {
                    "internalType": "uint256",
                    "name": "minimumTokenBalanceForDividends_",
                    "type": "uint256"
                }
            ],
            "name": "initialize",
            "outputs": [],
            "stateMutability": "nonpayable",
            "type": "function"
        },
        {
            "inputs": [
                {
                    "internalType": "address",
                    "name": "account",
                    "type": "address"
                }
            ],
            "name": "isExcludedFromDividends",
            "outputs": [
                {
                    "internalType": "bool",
                    "name": "",
                    "type": "bool"
                }
            ],
            "stateMutability": "view",
            "type": "function"
        },
        {
            "inputs": [
                {
                    "internalType": "address",
                    "name": "",
                    "type": "address"
                }
            ],
            "name": "lastClaimTimes",
            "outputs": [
                {
                    "internalType": "uint256",
                    "name": "",
                    "type": "uint256"
                }
            ],
            "stateMutability": "view",
            "type": "function"
        },
        {
            "inputs": [],
            "name": "lastProcessedIndex",
            "outputs": [
                {
                    "internalType": "uint256",
                    "name": "",
                    "type": "uint256"
                }
            ],
            "stateMutability": "view",
            "type": "function"
        },
        {
            "inputs": [],
            "name": "minimumTokenBalanceForDividends",
            "outputs": [
                {
                    "internalType": "uint256",
                    "name": "",
                    "type": "uint256"
                }
            ],
            "stateMutability": "view",
            "type": "function"
        },
        {
            "inputs": [],
            "name": "name",
            "outputs": [
                {
                    "internalType": "string",
                    "name": "",
                    "type": "string"
                }
            ],
            "stateMutability": "view",
            "type": "function"
        },
        {
            "inputs": [],
            "name": "owner",
            "outputs": [
                {
                    "internalType": "address",
                    "name": "",
                    "type": "address"
                }
            ],
            "stateMutability": "view",
            "type": "function"
        },
        {
            "inputs": [
                {
                    "internalType": "uint256",
                    "name": "gas",
                    "type": "uint256"
                }
            ],
            "name": "process",
            "outputs": [
                {
                    "internalType": "uint256",
                    "name": "",
                    "type": "uint256"
                },
                {
                    "internalType": "uint256",
                    "name": "",
                    "type": "uint256"
                },
                {
                    "internalType": "uint256",
                    "name": "",
                    "type": "uint256"
                }
            ],
            "stateMutability": "nonpayable",
            "type": "function"
        },
        {
            "inputs": [
                {
                    "internalType": "address payable",
                    "name": "account",
                    "type": "address"
                },
                {
                    "internalType": "bool",
                    "name": "automatic",
                    "type": "bool"
                }
            ],
            "name": "processAccount",
            "outputs": [
                {
                    "internalType": "bool",
                    "name": "",
                    "type": "bool"
                }
            ],
            "stateMutability": "nonpayable",
            "type": "function"
        },
        {
            "inputs": [],
            "name": "renounceOwnership",
            "outputs": [],
            "stateMutability": "nonpayable",
            "type": "function"
        },
        {
            "inputs": [],
            "name": "rewardToken",
            "outputs": [
                {
                    "internalType": "address",
                    "name": "",
                    "type": "address"
                }
            ],
            "stateMutability": "view",
            "type": "function"
        },
        {
            "inputs": [
                {
                    "internalType": "address payable",
                    "name": "account",
                    "type": "address"
                },
                {
                    "internalType": "uint256",
                    "name": "newBalance",
                    "type": "uint256"
                }
            ],
            "name": "setBalance",
            "outputs": [],
            "stateMutability": "nonpayable",
            "type": "function"
        },
        {
            "inputs": [],
            "name": "symbol",
            "outputs": [
                {
                    "internalType": "string",
                    "name": "",
                    "type": "string"
                }
            ],
            "stateMutability": "view",
            "type": "function"
        },
        {
            "inputs": [],
            "name": "totalDividendsDistributed",
            "outputs": [
                {
                    "internalType": "uint256",
                    "name": "",
                    "type": "uint256"
                }
            ],
            "stateMutability": "view",
            "type": "function"
        },
        {
            "inputs": [],
            "name": "totalSupply",
            "outputs": [
                {
                    "internalType": "uint256",
                    "name": "",
                    "type": "uint256"
                }
            ],
            "stateMutability": "view",
            "type": "function"
        },
        {
            "inputs": [
                {
                    "internalType": "address",
                    "name": "recipient",
                    "type": "address"
                },
                {
                    "internalType": "uint256",
                    "name": "amount",
                    "type": "uint256"
                }
            ],
            "name": "transfer",
            "outputs": [
                {
                    "internalType": "bool",
                    "name": "",
                    "type": "bool"
                }
            ],
            "stateMutability": "nonpayable",
            "type": "function"
        },
        {
            "inputs": [
                {
                    "internalType": "address",
                    "name": "sender",
                    "type": "address"
                },
                {
                    "internalType": "address",
                    "name": "recipient",
                    "type": "address"
                },
                {
                    "internalType": "uint256",
                    "name": "amount",
                    "type": "uint256"
                }
            ],
            "name": "transferFrom",
            "outputs": [
                {
                    "internalType": "bool",
                    "name": "",
                    "type": "bool"
                }
            ],
            "stateMutability": "nonpayable",
            "type": "function"
        },
        {
            "inputs": [
                {
                    "internalType": "address",
                    "name": "newOwner",
                    "type": "address"
                }
            ],
            "name": "transferOwnership",
            "outputs": [],
            "stateMutability": "nonpayable",
            "type": "function"
        },
        {
            "inputs": [
                {
                    "internalType": "uint256",
                    "name": "newClaimWait",
                    "type": "uint256"
                }
            ],
            "name": "updateClaimWait",
            "outputs": [],
            "stateMutability": "nonpayable",
            "type": "function"
        },
        {
            "inputs": [
                {
                    "internalType": "uint256",
                    "name": "amount",
                    "type": "uint256"
                }
            ],
            "name": "updateMinimumTokenBalanceForDividends",
            "outputs": [],
            "stateMutability": "nonpayable",
            "type": "function"
        },
        {
            "inputs": [],
            "name": "withdrawDividend",
            "outputs": [],
            "stateMutability": "pure",
            "type": "function"
        },
        {
            "inputs": [
                {
                    "internalType": "address",
                    "name": "_owner",
                    "type": "address"
                }
            ],
            "name": "withdrawableDividendOf",
            "outputs": [
                {
                    "internalType": "uint256",
                    "name": "",
                    "type": "uint256"
                }
            ],
            "stateMutability": "view",
            "type": "function"
        },
        {
            "inputs": [
                {
                    "internalType": "address",
                    "name": "_owner",
                    "type": "address"
                }
            ],
            "name": "withdrawnDividendOf",
            "outputs": [
                {
                    "internalType": "uint256",
                    "name": "",
                    "type": "uint256"
                }
            ],
            "stateMutability": "view",
            "type": "function"
        }
    ],
    "bytecode": "608060405234801561001057600080fd5b50612346806100206000396000f3fe608060405234801561001057600080fd5b506004361061023d5760003560e01c80638da5cb5b1161013b578063c705c569116100b8578063e98030c71161007c578063e98030c714610560578063f2fde38b14610573578063f7c618c114610586578063fbcbc0f114610599578063ffb2c479146105ac57600080fd5b8063c705c569146104cd578063cd6dc687146104f9578063dd62ed3e1461050c578063e30443bc14610545578063e7841ec01461055857600080fd5b8063a9059cbb116100ff578063a9059cbb14610462578063aafd847a14610475578063ba72a9551461049e578063bc4c4b37146104b1578063be10b614146104c457600080fd5b80638da5cb5b146103fc57806391b89fba1461042157806395d89b4114610434578063a457c2d71461043c578063a8b9d2401461044f57600080fd5b8063313ce567116101c95780636a4740021161018d5780636a474002146103b15780636f2789ec146103b957806370a08231146103c2578063715018a6146103eb57806385a6b3ae146103f357600080fd5b8063313ce5671461030157806331e79db01461031057806339509351146103235780634e7b827f146103365780635183d6fd1461035957600080fd5b806318160ddd1161021057806318160ddd146102aa578063226cfa3d146102b257806323b872dd146102d257806327ce0147146102e55780633009a609146102f857600080fd5b806306fdde0314610242578063095ea7b31461026057806309bbedde146102835780630dcb2e8914610295575b600080fd5b61024a6105da565b6040516102579190611f46565b60405180910390f35b61027361026e366004611fb0565b61066c565b6040519015158152602001610257565b609c545b604051908152602001610257565b6102a86102a3366004611fdc565b610683565b005b603554610287565b6102876102c0366004611ff5565b60a26020526000908152604090205481565b6102736102e0366004612012565b6106bb565b6102876102f3366004611ff5565b610765565b61028760a05481565b60405160128152602001610257565b6102a861031e366004611ff5565b6107c2565b610273610331366004611fb0565b6108e9565b610273610344366004611ff5565b60a16020526000908152604090205460ff1681565b61036c610367366004611fdc565b610925565b604080516001600160a01b0390991689526020890197909752958701949094526060860192909252608085015260a084015260c083015260e082015261010001610257565b6102a8610a79565b61028760a35481565b6102876103d0366004611ff5565b6001600160a01b031660009081526033602052604090205490565b6102a8610b1d565b610287609b5481565b6065546001600160a01b03165b6040516001600160a01b039091168152602001610257565b61028761042f366004611ff5565b610b51565b61024a610b5c565b61027361044a366004611fb0565b610b6b565b61028761045d366004611ff5565b610c04565b610273610470366004611fb0565b610c30565b610287610483366004611ff5565b6001600160a01b03166000908152609a602052604090205490565b6102a86104ac366004611fdc565b610c3d565b6102736104bf366004612061565b610cfb565b61028760a45481565b6102736104db366004611ff5565b6001600160a01b0316600090815260a1602052604090205460ff1690565b6102a8610507366004611fb0565b610da9565b61028761051a36600461209a565b6001600160a01b03918216600090815260346020908152604080832093909416825291909152205490565b6102a8610553366004611fb0565b610e7d565b60a054610287565b6102a861056e366004611fdc565b610fe6565b6102a8610581366004611ff5565b611150565b609754610409906001600160a01b031681565b61036c6105a7366004611ff5565b6111e8565b6105bf6105ba366004611fdc565b611351565b60408051938452602084019290925290820152606001610257565b6060603680546105e9906120c8565b80601f0160208091040260200160405190810160405280929190818152602001828054610615906120c8565b80156106625780601f1061063757610100808354040283529160200191610662565b820191906000526020600020905b81548152906001019060200180831161064557829003601f168201915b5050505050905090565b600061067933848461146c565b5060015b92915050565b6065546001600160a01b031633146106b65760405162461bcd60e51b81526004016106ad90612103565b60405180910390fd5b60a455565b60006106c8848484611590565b6001600160a01b03841660009081526034602090815260408083203384529091529020548281101561074d5760405162461bcd60e51b815260206004820152602860248201527f45524332303a207472616e7366657220616d6f756e74206578636565647320616044820152676c6c6f77616e636560c01b60648201526084016106ad565b61075a853385840361146c565b506001949350505050565b6001600160a01b0381166000908152609960209081526040808320546033909252822054609854600160801b926107b8926107b3926107ad916107a891906115e7565b6115fa565b9061160a565b611648565b61067d919061214e565b6065546001600160a01b031633146107ec5760405162461bcd60e51b81526004016106ad90612103565b6001600160a01b038116600090815260a1602052604090205460ff161561081257600080fd5b6001600160a01b038116600090815260a160205260408120805460ff1916600117905561084090829061165b565b60405163131836e760e21b8152609c60048201526001600160a01b038216602482015273__$00a7b6d08ff412025c7a23e4e5355b943e$__90634c60db9c9060440160006040518083038186803b15801561089a57600080fd5b505af41580156108ae573d6000803e3d6000fd5b50506040516001600160a01b03841692507fa878b31040b2e6d0a9a3d3361209db3908ba62014b0dca52adbaee451d128b259150600090a250565b3360008181526034602090815260408083206001600160a01b03871684529091528120549091610679918590610920908690612170565b61146c565b600080600080600080600080609c73__$00a7b6d08ff412025c7a23e4e5355b943e$__63deb3d89690916040518263ffffffff1660e01b815260040161096d91815260200190565b602060405180830381865af415801561098a573d6000803e3d6000fd5b505050506040513d601f19601f820116820180604052508101906109ae9190612188565b89106109d3575060009650600019955085945086935083925082915081905080610a6e565b6040516368d54f3f60e11b8152609c6004820152602481018a905260009073__$00a7b6d08ff412025c7a23e4e5355b943e$__9063d1aa9e7e90604401602060405180830381865af4158015610a2d573d6000803e3d6000fd5b505050506040513d601f19601f82011682018060405250810190610a5191906121a1565b9050610a5c816111e8565b98509850985098509850985098509850505b919395975091939597565b60405162461bcd60e51b815260206004820152606560248201527f4469766964656e645f547261636b65723a20776974686472617744697669646560448201527f6e642064697361626c65642e20557365207468652027636c61696d272066756e60648201527f6374696f6e206f6e20746865206d61696e2042414259544f4b454e20636f6e746084820152643930b1ba1760d91b60a482015260c4016106ad565b565b6065546001600160a01b03163314610b475760405162461bcd60e51b81526004016106ad90612103565b610b1b60006116ba565b600061067d82610c04565b6060603780546105e9906120c8565b3360009081526034602090815260408083206001600160a01b038616845290915281205482811015610bed5760405162461bcd60e51b815260206004820152602560248201527f45524332303a2064656372656173656420616c6c6f77616e63652062656c6f77604482015264207a65726f60d81b60648201526084016106ad565b610bfa338585840361146c565b5060019392505050565b6001600160a01b0381166000908152609a602052604081205461067d90610c2a84610765565b9061170c565b6000610679338484611590565b6065546001600160a01b03163314610c675760405162461bcd60e51b81526004016106ad90612103565b6000610c7260355490565b11610c7c57600080fd5b8015610cf857610caf610c8e60355490565b610c9c83600160801b6115e7565b610ca6919061214e565b60985490611718565b60985560405181815233907fa493a9229478c3fcd73f66d2cdeb7f94fd0f341da924d1054236d784541165119060200160405180910390a2609b54610cf49082611718565b609b555b50565b6065546000906001600160a01b03163314610d285760405162461bcd60e51b81526004016106ad90612103565b6000610d3384611724565b90508015610d9f576001600160a01b038416600081815260a26020526040908190204290555184151591907fa2c38e2d2fb7e3e1912d937fd1ca11ed6d51864dee4cfa7a7bf02becd7acf09290610d8d9085815260200190565b60405180910390a3600191505061067d565b5060009392505050565b600054610100900460ff1680610dc2575060005460ff16155b610dde5760405162461bcd60e51b81526004016106ad906121be565b600054610100900460ff16158015610e00576000805461ffff19166101011790555b610e5b836040518060400160405280601081526020016f2224ab24a222a7222faa2920a1a5a2a960811b8152506040518060400160405280601081526020016f2224ab24a222a7222faa2920a1a5a2a960811b815250611889565b610e1060a35560a48290558015610e78576000805461ff00191690555b505050565b6065546001600160a01b03163314610ea75760405162461bcd60e51b81526004016106ad90612103565b6001600160a01b038216600090815260a1602052604090205460ff1615610ecc575050565b60a4548110610f5d57610edf828261165b565b604051632f0ad01760e21b8152609c60048201526001600160a01b03831660248201526044810182905273__$00a7b6d08ff412025c7a23e4e5355b943e$__9063bc2b405c9060640160006040518083038186803b158015610f4057600080fd5b505af4158015610f54573d6000803e3d6000fd5b50505050610fdb565b610f6882600061165b565b60405163131836e760e21b8152609c60048201526001600160a01b038316602482015273__$00a7b6d08ff412025c7a23e4e5355b943e$__90634c60db9c9060440160006040518083038186803b158015610fc257600080fd5b505af4158015610fd6573d6000803e3d6000fd5b505050505b610e78826001610cfb565b6065546001600160a01b031633146110105760405162461bcd60e51b81526004016106ad90612103565b610e1081101580156110255750620151808111155b6110a55760405162461bcd60e51b815260206004820152604560248201527f4469766964656e645f547261636b65723a20636c61696d57616974206d75737460448201527f206265207570646174656420746f206265747765656e203120616e6420323420606482015264686f75727360d81b608482015260a4016106ad565b60a35481141561111d5760405162461bcd60e51b815260206004820152603760248201527f4469766964656e645f547261636b65723a2043616e6e6f74207570646174652060448201527f636c61696d5761697420746f2073616d652076616c756500000000000000000060648201526084016106ad565b60a35460405182907f474ea64804364a1e29a4487ddb63c3342a2dd826ccd8acf48825e680a0e6f20f90600090a360a355565b6065546001600160a01b0316331461117a5760405162461bcd60e51b81526004016106ad90612103565b6001600160a01b0381166111df5760405162461bcd60e51b815260206004820152602660248201527f4f776e61626c653a206e6577206f776e657220697320746865207a65726f206160448201526564647265737360d01b60648201526084016106ad565b610cf8816116ba565b6040516317e142d160e01b8152609c60048201526001600160a01b0382166024820152819060009081908190819081908190819073__$00a7b6d08ff412025c7a23e4e5355b943e$__906317e142d190604401602060405180830381865af4158015611258573d6000803e3d6000fd5b505050506040513d601f19601f8201168201806040525081019061127c9190612188565b96506000199550600087126112de5760a0548711156112aa5760a0546112a3908890611924565b95506112de565b60a054609c54600091106112bf5760006112ce565b60a054609c546112ce9161170c565b90506112da888261160a565b9650505b6112e788610c04565b94506112f288610765565b6001600160a01b038916600090815260a2602052604090205490945092508261131c57600061132a565b60a35461132a908490611718565b915042821161133a576000611344565b611344824261170c565b9050919395975091939597565b609c54600090819081908061137157505060a05460009250829150611465565b60a0546000805a90506000805b898410801561138c57508582105b15611454578461139b8161220c565b609c54909650861090506113ae57600094505b6000609c60000186815481106113c6576113c6612227565b60009182526020808320909101546001600160a01b031680835260a29091526040909120549091506113f790611961565b1561141a57611407816001610cfb565b1561141a57816114168161220c565b9250505b826114248161220c565b93505060005a90508085111561144b57611448611441868361170c565b8790611718565b95505b935061137e9050565b60a085905590975095509193505050505b9193909250565b6001600160a01b0383166114ce5760405162461bcd60e51b8152602060048201526024808201527f45524332303a20617070726f76652066726f6d20746865207a65726f206164646044820152637265737360e01b60648201526084016106ad565b6001600160a01b03821661152f5760405162461bcd60e51b815260206004820152602260248201527f45524332303a20617070726f766520746f20746865207a65726f206164647265604482015261737360f01b60648201526084016106ad565b6001600160a01b0383811660008181526034602090815260408083209487168084529482529182902085905590518481527f8c5be1e5ebec7d5bd14f71427d1e84f3dd0314c0f7b2291e5b200ac8c7c3b925910160405180910390a3505050565b60405162461bcd60e51b815260206004820152602660248201527f4469766964656e645f547261636b65723a204e6f207472616e736665727320616044820152651b1b1bddd95960d21b60648201526084016106ad565b60006115f3828461223d565b9392505050565b6000818181121561067d57600080fd5b600080611617838561225c565b90506000831215801561162a5750838112155b8061163f575060008312801561163f57508381125b6115f357600080fd5b60008082121561165757600080fd5b5090565b6001600160a01b0382166000908152603360205260409020548082111561169a576000611688838361170c565b90506116948482611988565b50505050565b80821015610e785760006116ae828461170c565b905061169484826119ec565b606580546001600160a01b038381166001600160a01b0319831681179093556040519116919082907f8be0079c531659141344cd1fd0a4f28419497f9722a3daafe3b4186f6b6457e090600090a35050565b60006115f3828461229d565b60006115f38284612170565b60008061173083610c04565b90508015611880576001600160a01b0383166000908152609a602052604090205461175b9082611718565b6001600160a01b0384166000818152609a6020526040908190209290925590517fee503bee2bb6a87e57bc57db795f98137327401a0e7b7ce42e37926cc1a9ca4d906117aa9084815260200190565b60405180910390a260975460405163a9059cbb60e01b81526001600160a01b03858116600483015260248201849052600092169063a9059cbb906044016020604051808303816000875af1158015611806573d6000803e3d6000fd5b505050506040513d601f19601f8201168201806040525081019061182a91906122b4565b905080611879576001600160a01b0384166000908152609a6020526040902054611854908361170c565b6001600160a01b039094166000908152609a6020526040812094909455509192915050565b5092915050565b50600092915050565b600054610100900460ff16806118a2575060005460ff16155b6118be5760405162461bcd60e51b81526004016106ad906121be565b600054610100900460ff161580156118e0576000805461ffff19166101011790555b6118e8611a30565b6118f28383611aab565b609780546001600160a01b0319166001600160a01b0386161790558015611694576000805461ff001916905550505050565b60008061193183856122d1565b9050600083121580156119445750838113155b8061163f575060008312801561163f57508381136115f357600080fd5b60004282111561197357506000919050565b60a354611980428461170c565b101592915050565b6119928282611b2a565b6119cc6119ad6107a8836098546115e790919063ffffffff16565b6001600160a01b03841660009081526099602052604090205490611924565b6001600160a01b0390921660009081526099602052604090209190915550565b6119f68282611c09565b6119cc611a116107a8836098546115e790919063ffffffff16565b6001600160a01b0384166000908152609960205260409020549061160a565b600054610100900460ff1680611a49575060005460ff16155b611a655760405162461bcd60e51b81526004016106ad906121be565b600054610100900460ff16158015611a87576000805461ffff19166101011790555b611a8f611d57565b611a97611dc1565b8015610cf8576000805461ff001916905550565b600054610100900460ff1680611ac4575060005460ff16155b611ae05760405162461bcd60e51b81526004016106ad906121be565b600054610100900460ff16158015611b02576000805461ffff19166101011790555b611b0a611d57565b611b148383611e21565b8015610e78576000805461ff0019169055505050565b6001600160a01b038216611b805760405162461bcd60e51b815260206004820152601f60248201527f45524332303a206d696e7420746f20746865207a65726f20616464726573730060448201526064016106ad565b8060356000828254611b929190612170565b90915550506001600160a01b03821660009081526033602052604081208054839290611bbf908490612170565b90915550506040518181526001600160a01b038316906000907fddf252ad1be2c89b69c2b068fc378daa952ba7f163c4a11628f55a4df523b3ef9060200160405180910390a35050565b6001600160a01b038216611c695760405162461bcd60e51b815260206004820152602160248201527f45524332303a206275726e2066726f6d20746865207a65726f206164647265736044820152607360f81b60648201526084016106ad565b6001600160a01b03821660009081526033602052604090205481811015611cdd5760405162461bcd60e51b815260206004820152602260248201527f45524332303a206275726e20616d6f756e7420657863656564732062616c616e604482015261636560f01b60648201526084016106ad565b6001600160a01b0383166000908152603360205260408120838303905560358054849290611d0c90849061229d565b90915550506040518281526000906001600160a01b038516907fddf252ad1be2c89b69c2b068fc378daa952ba7f163c4a11628f55a4df523b3ef9060200160405180910390a3505050565b600054610100900460ff1680611d70575060005460ff16155b611d8c5760405162461bcd60e51b81526004016106ad906121be565b600054610100900460ff16158015611a97576000805461ffff19166101011790558015610cf8576000805461ff001916905550565b600054610100900460ff1680611dda575060005460ff16155b611df65760405162461bcd60e51b81526004016106ad906121be565b600054610100900460ff16158015611e18576000805461ffff19166101011790555b611a97336116ba565b600054610100900460ff1680611e3a575060005460ff16155b611e565760405162461bcd60e51b81526004016106ad906121be565b600054610100900460ff16158015611e78576000805461ffff19166101011790555b8251611e8b906036906020860190611eb6565b508151611e9f906037906020850190611eb6565b508015610e78576000805461ff0019169055505050565b828054611ec2906120c8565b90600052602060002090601f016020900481019282611ee45760008555611f2a565b82601f10611efd57805160ff1916838001178555611f2a565b82800160010185558215611f2a579182015b82811115611f2a578251825591602001919060010190611f0f565b506116579291505b808211156116575760008155600101611f32565b600060208083528351808285015260005b81811015611f7357858101830151858201604001528201611f57565b81811115611f85576000604083870101525b50601f01601f1916929092016040019392505050565b6001600160a01b0381168114610cf857600080fd5b60008060408385031215611fc357600080fd5b8235611fce81611f9b565b946020939093013593505050565b600060208284031215611fee57600080fd5b5035919050565b60006020828403121561200757600080fd5b81356115f381611f9b565b60008060006060848603121561202757600080fd5b833561203281611f9b565b9250602084013561204281611f9b565b929592945050506040919091013590565b8015158114610cf857600080fd5b6000806040838503121561207457600080fd5b823561207f81611f9b565b9150602083013561208f81612053565b809150509250929050565b600080604083850312156120ad57600080fd5b82356120b881611f9b565b9150602083013561208f81611f9b565b600181811c908216806120dc57607f821691505b602082108114156120fd57634e487b7160e01b600052602260045260246000fd5b50919050565b6020808252818101527f4f776e61626c653a2063616c6c6572206973206e6f7420746865206f776e6572604082015260600190565b634e487b7160e01b600052601160045260246000fd5b60008261216b57634e487b7160e01b600052601260045260246000fd5b500490565b6000821982111561218357612183612138565b500190565b60006020828403121561219a57600080fd5b5051919050565b6000602082840312156121b357600080fd5b81516115f381611f9b565b6020808252602e908201527f496e697469616c697a61626c653a20636f6e747261637420697320616c72656160408201526d191e481a5b9a5d1a585b1a5e995960921b606082015260800190565b600060001982141561222057612220612138565b5060010190565b634e487b7160e01b600052603260045260246000fd5b600081600019048311821515161561225757612257612138565b500290565b600080821280156001600160ff1b038490038513161561227e5761227e612138565b600160ff1b839003841281161561229757612297612138565b50500190565b6000828210156122af576122af612138565b500390565b6000602082840312156122c657600080fd5b81516115f381612053565b60008083128015600160ff1b8501841216156122ef576122ef612138565b6001600160ff1b038401831381161561230a5761230a612138565b5050039056fea2646970667358221220f61b611c93f5bf0052734e5f6120b71796193369dee9996d4964380cb367e23964736f6c634300080a0033",
    "sourcePath": "/home/atilla/project/contracts/baby/BABYTOKENDividendTracker.sol",
    "compiler": {
        "name": "solc",
        "version": "0.8.10+commit.fc410830"
    },
    "functionHashes": {
        "accumulativeDividendOf(address)": "27ce0147",
        "allowance(address,address)": "dd62ed3e",
        "approve(address,uint256)": "095ea7b3",
        "balanceOf(address)": "70a08231",
        "claimWait()": "6f2789ec",
        "decimals()": "313ce567",
        "decreaseAllowance(address,uint256)": "a457c2d7",
        "distributeCAKEDividends(uint256)": "ba72a955",
        "dividendOf(address)": "91b89fba",
        "excludeFromDividends(address)": "31e79db0",
        "excludedFromDividends(address)": "4e7b827f",
        "getAccount(address)": "fbcbc0f1",
        "getAccountAtIndex(uint256)": "5183d6fd",
        "getLastProcessedIndex()": "e7841ec0",
        "getNumberOfTokenHolders()": "09bbedde",
        "increaseAllowance(address,uint256)": "39509351",
        "initialize(address,uint256)": "cd6dc687",
        "isExcludedFromDividends(address)": "c705c569",
        "lastClaimTimes(address)": "226cfa3d",
        "lastProcessedIndex()": "3009a609",
        "minimumTokenBalanceForDividends()": "be10b614",
        "name()": "06fdde03",
        "owner()": "8da5cb5b",
        "process(uint256)": "ffb2c479",
        "processAccount(address,bool)": "bc4c4b37",
        "renounceOwnership()": "715018a6",
        "rewardToken()": "f7c618c1",
        "setBalance(address,uint256)": "e30443bc",
        "symbol()": "95d89b41",
        "totalDividendsDistributed()": "85a6b3ae",
        "totalSupply()": "18160ddd",
        "transfer(address,uint256)": "a9059cbb",
        "transferFrom(address,address,uint256)": "23b872dd",
        "transferOwnership(address)": "f2fde38b",
        "updateClaimWait(uint256)": "e98030c7",
        "updateMinimumTokenBalanceForDividends(uint256)": "0dcb2e89",
        "withdrawDividend()": "6a474002",
        "withdrawableDividendOf(address)": "a8b9d240",
        "withdrawnDividendOf(address)": "aafd847a"
    },
    "gasEstimates": {
        "creation": {
            "codeDepositCost": "1806000",
            "executionCost": "1905",
            "totalCost": "1807905"
        },
        "external": {
            "accumulativeDividendOf(address)": "infinite",
            "allowance(address,address)": "infinite",
            "approve(address,uint256)": "24660",
            "balanceOf(address)": "2620",
            "claimWait()": "2362",
            "decimals()": "223",
            "decreaseAllowance(address,uint256)": "26994",
            "distributeCAKEDividends(uint256)": "infinite",
            "dividendOf(address)": "infinite",
            "excludeFromDividends(address)": "infinite",
            "excludedFromDividends(address)": "2637",
            "getAccount(address)": "infinite",
            "getAccountAtIndex(uint256)": "infinite",
            "getLastProcessedIndex()": "2425",
            "getNumberOfTokenHolders()": "2372",
            "increaseAllowance(address,uint256)": "27019",
            "initialize(address,uint256)": "infinite",
            "isExcludedFromDividends(address)": "2588",
            "lastClaimTimes(address)": "2581",
            "lastProcessedIndex()": "2429",
            "minimumTokenBalanceForDividends()": "2428",
            "name()": "infinite",
            "owner()": "2366",
            "process(uint256)": "infinite",
            "processAccount(address,bool)": "infinite",
            "renounceOwnership()": "28228",
            "rewardToken()": "2425",
            "setBalance(address,uint256)": "infinite",
            "symbol()": "infinite",
            "totalDividendsDistributed()": "2428",
            "totalSupply()": "2338",
            "transfer(address,uint256)": "520",
            "transferFrom(address,address,uint256)": "infinite",
            "transferOwnership(address)": "infinite",
            "updateClaimWait(uint256)": "30321",
            "updateMinimumTokenBalanceForDividends(uint256)": "24577",
            "withdrawDividend()": "357",
            "withdrawableDividendOf(address)": "infinite",
            "withdrawnDividendOf(address)": "2598"
        },
        "internal": {
            "_transfer(address,address,uint256)": "infinite",
            "canAutoClaim(uint256)": "2267"
        }
    }
}